{
  "_format": "hh-sol-artifact-1",
  "contractName": "TaskFactory",
  "sourceName": "contracts/TaskFactory.sol",
  "abi": [
    {
      "anonymous": false,
      "inputs": [
        {
          "indexed": false,
          "internalType": "uint256",
          "name": "taskId",
          "type": "uint256"
        },
        {
          "indexed": false,
          "internalType": "string",
          "name": "task",
          "type": "string"
        },
        {
          "indexed": false,
          "internalType": "bool",
          "name": "completed",
          "type": "bool"
        },
        {
          "indexed": false,
          "internalType": "bool",
          "name": "approved",
          "type": "bool"
        },
        {
          "indexed": false,
          "internalType": "uint256",
          "name": "reward",
          "type": "uint256"
        }
      ],
      "name": "NewTask",
      "type": "event"
    },
    {
      "anonymous": false,
      "inputs": [
        {
          "indexed": false,
          "internalType": "uint256",
          "name": "taskId",
          "type": "uint256"
        },
        {
          "indexed": false,
          "internalType": "string",
          "name": "message",
          "type": "string"
        }
      ],
      "name": "TaskCompleted",
      "type": "event"
    },
    {
      "inputs": [
        {
          "internalType": "address",
          "name": "_childId",
          "type": "address"
        },
        {
          "internalType": "uint256",
          "name": "_taskId",
          "type": "uint256"
        }
      ],
      "name": "_addChild",
      "outputs": [
        {
          "internalType": "bool",
          "name": "isChildAdded",
          "type": "bool"
        },
        {
          "internalType": "string",
          "name": "childAddedStatus",
          "type": "string"
        }
      ],
      "stateMutability": "payable",
      "type": "function"
    },
    {
      "inputs": [
        {
          "internalType": "string",
          "name": "_task",
          "type": "string"
        },
        {
          "internalType": "bool",
          "name": "_completed",
          "type": "bool"
        },
        {
          "internalType": "bool",
          "name": "_approved",
          "type": "bool"
        }
      ],
      "name": "_createTask",
      "outputs": [],
      "stateMutability": "payable",
      "type": "function"
    },
    {
      "inputs": [],
      "name": "_getBalance",
      "outputs": [
        {
          "internalType": "uint256",
          "name": "balance",
          "type": "uint256"
        }
      ],
      "stateMutability": "view",
      "type": "function"
    },
    {
      "inputs": [
        {
          "internalType": "uint256",
          "name": "_taskId",
          "type": "uint256"
        }
      ],
      "name": "_updateApproveTask",
      "outputs": [
        {
          "internalType": "bool",
          "name": "isApproved",
          "type": "bool"
        },
        {
          "internalType": "string",
          "name": "approvedStatus",
          "type": "string"
        }
      ],
      "stateMutability": "payable",
      "type": "function"
    },
    {
      "inputs": [
        {
          "internalType": "uint256",
          "name": "_taskId",
          "type": "uint256"
        }
      ],
      "name": "_updateCompleteTask",
      "outputs": [],
      "stateMutability": "payable",
      "type": "function"
    },
    {
      "inputs": [],
      "name": "_viewTasks",
      "outputs": [
        {
          "components": [
            {
              "internalType": "string",
              "name": "task",
              "type": "string"
            },
            {
              "internalType": "bool",
              "name": "completed",
              "type": "bool"
            },
            {
              "internalType": "bool",
              "name": "approved",
              "type": "bool"
            },
            {
              "internalType": "uint256",
              "name": "reward",
              "type": "uint256"
            }
          ],
          "internalType": "struct TaskFactory.Task[]",
          "name": "",
          "type": "tuple[]"
        }
      ],
      "stateMutability": "view",
      "type": "function"
    },
    {
      "inputs": [
        {
          "internalType": "uint256",
          "name": "_taskId",
          "type": "uint256"
        }
      ],
      "name": "_withdraw",
      "outputs": [
        {
          "internalType": "bool",
          "name": "isWithdraw",
          "type": "bool"
        },
        {
          "internalType": "string",
          "name": "withrawStatus",
          "type": "string"
        }
      ],
      "stateMutability": "payable",
      "type": "function"
    },
    {
      "inputs": [
        {
          "internalType": "uint256",
          "name": "",
          "type": "uint256"
        }
      ],
      "name": "childToTask",
      "outputs": [
        {
          "internalType": "address",
          "name": "",
          "type": "address"
        }
      ],
      "stateMutability": "view",
      "type": "function"
    },
    {
      "inputs": [
        {
          "internalType": "uint256",
          "name": "",
          "type": "uint256"
        }
      ],
      "name": "taskToOwner",
      "outputs": [
        {
          "internalType": "address",
          "name": "",
          "type": "address"
        }
      ],
      "stateMutability": "view",
      "type": "function"
    },
    {
      "inputs": [
        {
          "internalType": "uint256",
          "name": "",
          "type": "uint256"
        }
      ],
      "name": "tasks",
      "outputs": [
        {
          "internalType": "string",
          "name": "task",
          "type": "string"
        },
        {
          "internalType": "bool",
          "name": "completed",
          "type": "bool"
        },
        {
          "internalType": "bool",
          "name": "approved",
          "type": "bool"
        },
        {
          "internalType": "uint256",
          "name": "reward",
          "type": "uint256"
        }
      ],
      "stateMutability": "view",
      "type": "function"
    }
  ],
  "bytecode": "0x608060405234801561001057600080fd5b50611b0d806100206000396000f3fe6080604052600436106100915760003560e01c80638d977672116100595780638d97767214610188578063ac6a2b5d146101c8578063ad6cf987146101f9578063c74c88a514610215578063efff5e2f1461024657610091565b80633ae01d9c14610096578063522f092d146100d35780635f8cf08c146100ef5780636641c6c41461011a5780637edb62dd14610157575b600080fd5b3480156100a257600080fd5b506100bd60048036038101906100b8919061110b565b610271565b6040516100ca91906115ad565b60405180910390f35b6100ed60048036038101906100e891906110a4565b6102a4565b005b3480156100fb57600080fd5b5061010461045f565b60405161011191906115c8565b60405180910390f35b34801561012657600080fd5b50610141600480360381019061013c919061110b565b610590565b60405161014e91906115ad565b60405180910390f35b610171600480360381019061016c9190611068565b6105c3565b60405161017f9291906115ea565b60405180910390f35b34801561019457600080fd5b506101af60048036038101906101aa919061110b565b61079f565b6040516101bf949392919061161a565b60405180910390f35b6101e260048036038101906101dd919061110b565b610881565b6040516101f09291906115ea565b60405180910390f35b610213600480360381019061020e919061110b565b610b62565b005b61022f600480360381019061022a919061110b565b610ca1565b60405161023d9291906115ea565b60405180910390f35b34801561025257600080fd5b5061025b610f16565b6040516102689190611746565b60405180910390f35b60036020528060005260406000206000915054906101000a900473ffffffffffffffffffffffffffffffffffffffff1681565b60006040518060800160405280858152602001841515815260200183151581526020013481525090806001815401808255809150506001900390600052602060002090600302016000909190919091506000820151816000019080519060200190610310929190610f1e565b5060208201518160010160006101000a81548160ff02191690831515021790555060408201518160010160016101000a81548160ff0219169083151502179055506060820151816002015550506000600160008054905061037191906118bb565b9050336001600083815260200190815260200160002060006101000a81548173ffffffffffffffffffffffffffffffffffffffff021916908373ffffffffffffffffffffffffffffffffffffffff160217905550600260003373ffffffffffffffffffffffffffffffffffffffff1673ffffffffffffffffffffffffffffffffffffffff1681526020019081526020016000206000815480929190610415906119ab565b91905055507f8b5079473afe212edb9a40e1ec50f0b6712a01c1cedf2e1973ea84b12f98d2e88185858534604051610451959493929190611761565b60405180910390a150505050565b60606000805480602002602001604051908101604052809291908181526020016000905b8282101561058757838290600052602060002090600302016040518060800160405290816000820180546104b690611979565b80601f01602080910402602001604051908101604052809291908181526020018280546104e290611979565b801561052f5780601f106105045761010080835404028352916020019161052f565b820191906000526020600020905b81548152906001019060200180831161051257829003601f168201915b505050505081526020016001820160009054906101000a900460ff161515151581526020016001820160019054906101000a900460ff1615151515815260200160028201548152505081526020019060010190610483565b50505050905090565b60016020528060005260406000206000915054906101000a900473ffffffffffffffffffffffffffffffffffffffff1681565b60006060600073ffffffffffffffffffffffffffffffffffffffff166003600085815260200190815260200160002060009054906101000a900473ffffffffffffffffffffffffffffffffffffffff1673ffffffffffffffffffffffffffffffffffffffff1614610669576040517f08c379a000000000000000000000000000000000000000000000000000000000815260040161066090611666565b60405180910390fd5b6001600084815260200190815260200160002060009054906101000a900473ffffffffffffffffffffffffffffffffffffffff1673ffffffffffffffffffffffffffffffffffffffff163373ffffffffffffffffffffffffffffffffffffffff161461070a576040517f08c379a0000000000000000000000000000000000000000000000000000000008152600401610701906116a6565b60405180910390fd5b836003600085815260200190815260200160002060006101000a81548173ffffffffffffffffffffffffffffffffffffffff021916908373ffffffffffffffffffffffffffffffffffffffff16021790555060016040518060400160405280601881526020017f4368696c64204164646564205375636365737366756c6c790000000000000000815250915091509250929050565b600081815481106107af57600080fd5b90600052602060002090600302016000915090508060000180546107d290611979565b80601f01602080910402602001604051908101604052809291908181526020018280546107fe90611979565b801561084b5780601f106108205761010080835404028352916020019161084b565b820191906000526020600020905b81548152906001019060200180831161082e57829003601f168201915b5050505050908060010160009054906101000a900460ff16908060010160019054906101000a900460ff16908060020154905084565b600060606001600084815260200190815260200160002060009054906101000a900473ffffffffffffffffffffffffffffffffffffffff1673ffffffffffffffffffffffffffffffffffffffff163373ffffffffffffffffffffffffffffffffffffffff1614610926576040517f08c379a000000000000000000000000000000000000000000000000000000000815260040161091d906116e6565b60405180910390fd5b6000151560008481548110610964577f4e487b7100000000000000000000000000000000000000000000000000000000600052603260045260246000fd5b906000526020600020906003020160010160019054906101000a900460ff161515146109c5576040517f08c379a00000000000000000000000000000000000000000000000000000000081526004016109bc906116c6565b60405180910390fd5b60003373ffffffffffffffffffffffffffffffffffffffff1660008581548110610a18577f4e487b7100000000000000000000000000000000000000000000000000000000600052603260045260246000fd5b906000526020600020906003020160020154604051610a3690611583565b60006040518083038185875af1925050503d8060008114610a73576040519150601f19603f3d011682016040523d82523d6000602084013e610a78565b606091505b50509050600160008581548110610ab8577f4e487b7100000000000000000000000000000000000000000000000000000000600052603260045260246000fd5b906000526020600020906003020160010160016101000a81548160ff02191690831515021790555080610b20576040517f08c379a0000000000000000000000000000000000000000000000000000000008152600401610b1790611706565b60405180910390fd5b60016040518060400160405280601181526020017f52657761726420776974686472617765640000000000000000000000000000008152509250925050915091565b6003600082815260200190815260200160002060009054906101000a900473ffffffffffffffffffffffffffffffffffffffff1673ffffffffffffffffffffffffffffffffffffffff163373ffffffffffffffffffffffffffffffffffffffff1614610c03576040517f08c379a0000000000000000000000000000000000000000000000000000000008152600401610bfa90611726565b60405180910390fd5b600160008281548110610c3f577f4e487b7100000000000000000000000000000000000000000000000000000000600052603260045260246000fd5b906000526020600020906003020160010160006101000a81548160ff0219169083151502179055507f7e6ffc29fe63759579d96a0457a8f2e08339aca345bd469f59dc2e61f82a5aeb81604051610c9691906117bb565b60405180910390a150565b600060606001600084815260200190815260200160002060009054906101000a900473ffffffffffffffffffffffffffffffffffffffff1673ffffffffffffffffffffffffffffffffffffffff163373ffffffffffffffffffffffffffffffffffffffff1614610d46576040517f08c379a0000000000000000000000000000000000000000000000000000000008152600401610d3d90611686565b60405180910390fd5b600160008481548110610d82577f4e487b7100000000000000000000000000000000000000000000000000000000600052603260045260246000fd5b906000526020600020906003020160010160016101000a81548160ff02191690831515021790555060006003600085815260200190815260200160002060009054906101000a900473ffffffffffffffffffffffffffffffffffffffff1673ffffffffffffffffffffffffffffffffffffffff1660008581548110610e30577f4e487b7100000000000000000000000000000000000000000000000000000000600052603260045260246000fd5b906000526020600020906003020160020154604051610e4e90611598565b60006040518083038185875af1925050503d8060008114610e8b576040519150601f19603f3d011682016040523d82523d6000602084013e610e90565b606091505b5050905080610ed4576040517f08c379a0000000000000000000000000000000000000000000000000000000008152600401610ecb90611706565b60405180910390fd5b60016040518060400160405280601a81526020017f5461736b20417070726f766564207375636365737366756c6c790000000000008152509250925050915091565b600047905090565b828054610f2a90611979565b90600052602060002090601f016020900481019282610f4c5760008555610f93565b82601f10610f6557805160ff1916838001178555610f93565b82800160010185558215610f93579182015b82811115610f92578251825591602001919060010190610f77565b5b509050610fa09190610fa4565b5090565b5b80821115610fbd576000816000905550600101610fa5565b5090565b6000610fd4610fcf8461181a565b6117e9565b905082815260208101848484011115610fec57600080fd5b610ff7848285611937565b509392505050565b60008135905061100e81611a92565b92915050565b60008135905061102381611aa9565b92915050565b600082601f83011261103a57600080fd5b813561104a848260208601610fc1565b91505092915050565b60008135905061106281611ac0565b92915050565b6000806040838503121561107b57600080fd5b600061108985828601610fff565b925050602061109a85828601611053565b9150509250929050565b6000806000606084860312156110b957600080fd5b600084013567ffffffffffffffff8111156110d357600080fd5b6110df86828701611029565b93505060206110f086828701611014565b925050604061110186828701611014565b9150509250925092565b60006020828403121561111d57600080fd5b600061112b84828501611053565b91505092915050565b60006111408383611502565b905092915050565b611151816118ef565b82525050565b60006111628261185a565b61116c818561187d565b93508360208202850161117e8561184a565b8060005b858110156111ba578484038952815161119b8582611134565b94506111a683611870565b925060208a01995050600181019050611182565b50829750879550505050505092915050565b6111d581611901565b82525050565b6111e481611901565b82525050565b60006111f582611865565b6111ff8185611899565b935061120f818560208601611946565b61121881611a81565b840191505092915050565b600061122e82611865565b61123881856118aa565b9350611248818560208601611946565b61125181611a81565b840191505092915050565b60006112696018836118aa565b91507f5461736b20616c7265616479206861732061206368696c6400000000000000006000830152602082019050919050565b60006112a9601b836118aa565b91507f5461736b206f776e65722063616e206f6e6c7920617070726f766500000000006000830152602082019050919050565b60006112e9600e836118aa565b91507f5461736b20436f6d706c657465640000000000000000000000000000000000006000830152602082019050919050565b6000611329601d836118aa565b91507f5461736b206f776e65722063616e206f6e6c7920616464206368696c640000006000830152602082019050919050565b60006113696015836118aa565b91507f5461736b20616c726561647920617070726f76656400000000000000000000006000830152602082019050919050565b60006113a9601c836118aa565b91507f5461736b206f776e65722063616e206f6e6c79207769746864726177000000006000830152602082019050919050565b60006113e960198361188e565b91507f52657761726420776974686472617720746f20706172656e74000000000000006000830152601982019050919050565b6000611429600b836118aa565b91507f63616c6c206661696c65640000000000000000000000000000000000000000006000830152602082019050919050565b60006114696021836118aa565b91507f5461736b206e6f742061737369676e656420746f20746869732061646472657360008301527f73000000000000000000000000000000000000000000000000000000000000006020830152604082019050919050565b60006114cf60148361188e565b91507f5265776172642073656e7420746f206368696c640000000000000000000000006000830152601482019050919050565b6000608083016000830151848203600086015261151f82826111ea565b915050602083015161153460208601826111cc565b50604083015161154760408601826111cc565b50606083015161155a6060860182611565565b508091505092915050565b61156e8161192d565b82525050565b61157d8161192d565b82525050565b600061158e826113dc565b9150819050919050565b60006115a3826114c2565b9150819050919050565b60006020820190506115c26000830184611148565b92915050565b600060208201905081810360008301526115e28184611157565b905092915050565b60006040820190506115ff60008301856111db565b81810360208301526116118184611223565b90509392505050565b600060808201905081810360008301526116348187611223565b905061164360208301866111db565b61165060408301856111db565b61165d6060830184611574565b95945050505050565b6000602082019050818103600083015261167f8161125c565b9050919050565b6000602082019050818103600083015261169f8161129c565b9050919050565b600060208201905081810360008301526116bf8161131c565b9050919050565b600060208201905081810360008301526116df8161135c565b9050919050565b600060208201905081810360008301526116ff8161139c565b9050919050565b6000602082019050818103600083015261171f8161141c565b9050919050565b6000602082019050818103600083015261173f8161145c565b9050919050565b600060208201905061175b6000830184611574565b92915050565b600060a0820190506117766000830188611574565b81810360208301526117888187611223565b905061179760408301866111db565b6117a460608301856111db565b6117b16080830184611574565b9695505050505050565b60006040820190506117d06000830184611574565b81810360208301526117e1816112dc565b905092915050565b6000604051905081810181811067ffffffffffffffff821117156118105761180f611a52565b5b8060405250919050565b600067ffffffffffffffff82111561183557611834611a52565b5b601f19601f8301169050602081019050919050565b6000819050602082019050919050565b600081519050919050565b600081519050919050565b6000602082019050919050565b600082825260208201905092915050565b600081905092915050565b600082825260208201905092915050565b600082825260208201905092915050565b60006118c68261192d565b91506118d18361192d565b9250828210156118e4576118e36119f4565b5b828203905092915050565b60006118fa8261190d565b9050919050565b60008115159050919050565b600073ffffffffffffffffffffffffffffffffffffffff82169050919050565b6000819050919050565b82818337600083830152505050565b60005b83811015611964578082015181840152602081019050611949565b83811115611973576000848401525b50505050565b6000600282049050600182168061199157607f821691505b602082108114156119a5576119a4611a23565b5b50919050565b60006119b68261192d565b91507fffffffffffffffffffffffffffffffffffffffffffffffffffffffffffffffff8214156119e9576119e86119f4565b5b600182019050919050565b7f4e487b7100000000000000000000000000000000000000000000000000000000600052601160045260246000fd5b7f4e487b7100000000000000000000000000000000000000000000000000000000600052602260045260246000fd5b7f4e487b7100000000000000000000000000000000000000000000000000000000600052604160045260246000fd5b6000601f19601f8301169050919050565b611a9b816118ef565b8114611aa657600080fd5b50565b611ab281611901565b8114611abd57600080fd5b50565b611ac98161192d565b8114611ad457600080fd5b5056fea2646970667358221220dcc902f36ee19abae3616f3d8def1bb402412c9bcde0e97a8c3b8f4ffd9c641b64736f6c63430008000033",
  "linkReferences": {},
  "deployedLinkReferences": {}
}