{
  "_format": "hh-sol-artifact-1",
  "contractName": "TaskFactory",
  "sourceName": "contracts/TaskFactory.sol",
  "abi": [
    {
      "anonymous": false,
      "inputs": [
        {
          "indexed": false,
          "internalType": "uint256",
          "name": "taskId",
          "type": "uint256"
        },
        {
          "indexed": false,
          "internalType": "string",
          "name": "task",
          "type": "string"
        },
        {
          "indexed": false,
          "internalType": "bool",
          "name": "completed",
          "type": "bool"
        },
        {
          "indexed": false,
          "internalType": "bool",
          "name": "approved",
          "type": "bool"
        },
        {
          "indexed": false,
          "internalType": "uint256",
          "name": "reward",
          "type": "uint256"
        }
      ],
      "name": "NewTask",
      "type": "event"
    },
    {
      "inputs": [
        {
          "internalType": "address",
          "name": "_childId",
          "type": "address"
        },
        {
          "internalType": "uint256",
          "name": "_taskId",
          "type": "uint256"
        }
      ],
      "name": "_addChild",
      "outputs": [],
      "stateMutability": "nonpayable",
      "type": "function"
    },
    {
      "inputs": [
        {
          "internalType": "string",
          "name": "_task",
          "type": "string"
        },
        {
          "internalType": "bool",
          "name": "_completed",
          "type": "bool"
        },
        {
          "internalType": "bool",
          "name": "_approved",
          "type": "bool"
        },
        {
          "internalType": "uint256",
          "name": "_reward",
          "type": "uint256"
        }
      ],
      "name": "_createTask",
      "outputs": [],
      "stateMutability": "payable",
      "type": "function"
    },
    {
      "inputs": [
        {
          "internalType": "uint256",
          "name": "_taskId",
          "type": "uint256"
        }
      ],
      "name": "_updateApproveTask",
      "outputs": [],
      "stateMutability": "payable",
      "type": "function"
    },
    {
      "inputs": [
        {
          "internalType": "uint256",
          "name": "_taskId",
          "type": "uint256"
        }
      ],
      "name": "_updateCompleteTask",
      "outputs": [],
      "stateMutability": "nonpayable",
      "type": "function"
    },
    {
      "inputs": [],
      "name": "_viewTasks",
      "outputs": [
        {
          "components": [
            {
              "internalType": "string",
              "name": "task",
              "type": "string"
            },
            {
              "internalType": "bool",
              "name": "completed",
              "type": "bool"
            },
            {
              "internalType": "bool",
              "name": "approved",
              "type": "bool"
            },
            {
              "internalType": "uint256",
              "name": "reward",
              "type": "uint256"
            }
          ],
          "internalType": "struct TaskFactory.Task[]",
          "name": "",
          "type": "tuple[]"
        }
      ],
      "stateMutability": "view",
      "type": "function"
    },
    {
      "inputs": [
        {
          "internalType": "uint256",
          "name": "_taskId",
          "type": "uint256"
        }
      ],
      "name": "_withdraw",
      "outputs": [],
      "stateMutability": "payable",
      "type": "function"
    },
    {
      "inputs": [
        {
          "internalType": "uint256",
          "name": "",
          "type": "uint256"
        }
      ],
      "name": "childToTask",
      "outputs": [
        {
          "internalType": "address",
          "name": "",
          "type": "address"
        }
      ],
      "stateMutability": "view",
      "type": "function"
    },
    {
      "inputs": [
        {
          "internalType": "uint256",
          "name": "deposit",
          "type": "uint256"
        }
      ],
      "name": "depositUsingParameter",
      "outputs": [],
      "stateMutability": "payable",
      "type": "function"
    },
    {
      "inputs": [
        {
          "internalType": "uint256",
          "name": "",
          "type": "uint256"
        }
      ],
      "name": "taskToOwner",
      "outputs": [
        {
          "internalType": "address",
          "name": "",
          "type": "address"
        }
      ],
      "stateMutability": "view",
      "type": "function"
    },
    {
      "inputs": [
        {
          "internalType": "uint256",
          "name": "",
          "type": "uint256"
        }
      ],
      "name": "tasks",
      "outputs": [
        {
          "internalType": "string",
          "name": "task",
          "type": "string"
        },
        {
          "internalType": "bool",
          "name": "completed",
          "type": "bool"
        },
        {
          "internalType": "bool",
          "name": "approved",
          "type": "bool"
        },
        {
          "internalType": "uint256",
          "name": "reward",
          "type": "uint256"
        }
      ],
      "stateMutability": "view",
      "type": "function"
    }
  ],
  "bytecode": "0x608060405234801561001057600080fd5b506111b6806100206000396000f3fe6080604052600436106100915760003560e01c80638d977672116100595780638d97767214610180578063ac6a2b5d146101c0578063ad6cf987146101dc578063af99fb9b14610205578063c74c88a51461022157610091565b80633ae01d9c146100965780635f8cf08c146100d35780635fcd17fb146100fe5780636641c6c41461011a5780637edb62dd14610157575b600080fd5b3480156100a257600080fd5b506100bd60048036038101906100b89190610be8565b61023d565b6040516100ca9190610dba565b60405180910390f35b3480156100df57600080fd5b506100e8610270565b6040516100f59190610dd5565b60405180910390f35b61011860048036038101906101139190610be8565b6103a1565b005b34801561012657600080fd5b50610141600480360381019061013c9190610be8565b6103b3565b60405161014e9190610dba565b60405180910390f35b34801561016357600080fd5b5061017e60048036038101906101799190610b31565b6103e6565b005b34801561018c57600080fd5b506101a760048036038101906101a29190610be8565b61043c565b6040516101b79493929190610df7565b60405180910390f35b6101da60048036038101906101d59190610be8565b61051e565b005b3480156101e857600080fd5b5061020360048036038101906101fe9190610be8565b610687565b005b61021f600480360381019061021a9190610b6d565b610759565b005b61023b60048036038101906102369190610be8565b610915565b005b60036020528060005260406000206000915054906101000a900473ffffffffffffffffffffffffffffffffffffffff1681565b60606000805480602002602001604051908101604052809291908181526020016000905b8282101561039857838290600052602060002090600302016040518060800160405290816000820180546102c790611022565b80601f01602080910402602001604051908101604052809291908181526020018280546102f390611022565b80156103405780601f1061031557610100808354040283529160200191610340565b820191906000526020600020905b81548152906001019060200180831161032357829003601f168201915b505050505081526020016001820160009054906101000a900460ff161515151581526020016001820160019054906101000a900460ff1615151515815260200160028201548152505081526020019060010190610294565b50505050905090565b8034146103ad57600080fd5b34905050565b60016020528060005260406000206000915054906101000a900473ffffffffffffffffffffffffffffffffffffffff1681565b816003600083815260200190815260200160002060006101000a81548173ffffffffffffffffffffffffffffffffffffffff021916908373ffffffffffffffffffffffffffffffffffffffff1602179055505050565b6000818154811061044c57600080fd5b906000526020600020906003020160009150905080600001805461046f90611022565b80601f016020809104026020016040519081016040528092919081815260200182805461049b90611022565b80156104e85780601f106104bd576101008083540402835291602001916104e8565b820191906000526020600020905b8154815290600101906020018083116104cb57829003601f168201915b5050505050908060010160009054906101000a900460ff16908060010160019054906101000a900460ff16908060020154905084565b6001600082815260200190815260200160002060009054906101000a900473ffffffffffffffffffffffffffffffffffffffff1673ffffffffffffffffffffffffffffffffffffffff163373ffffffffffffffffffffffffffffffffffffffff161461058957600080fd5b60001515600082815481106105c7577f4e487b7100000000000000000000000000000000000000000000000000000000600052603260045260246000fd5b906000526020600020906003020160010160019054906101000a900460ff161515146105f257600080fd5b3373ffffffffffffffffffffffffffffffffffffffff166108fc60008381548110610646577f4e487b7100000000000000000000000000000000000000000000000000000000600052603260045260246000fd5b9060005260206000209060030201600201549081150290604051600060405180830381858888f19350505050158015610683573d6000803e3d6000fd5b5050565b6003600082815260200190815260200160002060009054906101000a900473ffffffffffffffffffffffffffffffffffffffff1673ffffffffffffffffffffffffffffffffffffffff163373ffffffffffffffffffffffffffffffffffffffff16146106f257600080fd5b60016000828154811061072e577f4e487b7100000000000000000000000000000000000000000000000000000000600052603260045260246000fd5b906000526020600020906003020160010160006101000a81548160ff02191690831515021790555050565b600060405180608001604052808681526020018515158152602001841515815260200183815250908060018154018082558091505060019003906000526020600020906003020160009091909190915060008201518160000190805190602001906107c59291906109e7565b5060208201518160010160006101000a81548160ff02191690831515021790555060408201518160010160016101000a81548160ff021916908315150217905550606082015181600201555050600060016000805490506108269190610f64565b9050336001600083815260200190815260200160002060006101000a81548173ffffffffffffffffffffffffffffffffffffffff021916908373ffffffffffffffffffffffffffffffffffffffff160217905550600260003373ffffffffffffffffffffffffffffffffffffffff1673ffffffffffffffffffffffffffffffffffffffff16815260200190815260200160002060008154809291906108ca90611054565b91905055507f8b5079473afe212edb9a40e1ec50f0b6712a01c1cedf2e1973ea84b12f98d2e88186868686604051610906959493929190610e43565b60405180910390a15050505050565b6001600082815260200190815260200160002060009054906101000a900473ffffffffffffffffffffffffffffffffffffffff1673ffffffffffffffffffffffffffffffffffffffff163373ffffffffffffffffffffffffffffffffffffffff161461098057600080fd5b6001600082815481106109bc577f4e487b7100000000000000000000000000000000000000000000000000000000600052603260045260246000fd5b906000526020600020906003020160010160016101000a81548160ff02191690831515021790555050565b8280546109f390611022565b90600052602060002090601f016020900481019282610a155760008555610a5c565b82601f10610a2e57805160ff1916838001178555610a5c565b82800160010185558215610a5c579182015b82811115610a5b578251825591602001919060010190610a40565b5b509050610a699190610a6d565b5090565b5b80821115610a86576000816000905550600101610a6e565b5090565b6000610a9d610a9884610ece565b610e9d565b905082815260208101848484011115610ab557600080fd5b610ac0848285610fe0565b509392505050565b600081359050610ad78161113b565b92915050565b600081359050610aec81611152565b92915050565b600082601f830112610b0357600080fd5b8135610b13848260208601610a8a565b91505092915050565b600081359050610b2b81611169565b92915050565b60008060408385031215610b4457600080fd5b6000610b5285828601610ac8565b9250506020610b6385828601610b1c565b9150509250929050565b60008060008060808587031215610b8357600080fd5b600085013567ffffffffffffffff811115610b9d57600080fd5b610ba987828801610af2565b9450506020610bba87828801610add565b9350506040610bcb87828801610add565b9250506060610bdc87828801610b1c565b91505092959194509250565b600060208284031215610bfa57600080fd5b6000610c0884828501610b1c565b91505092915050565b6000610c1d8383610d39565b905092915050565b610c2e81610f98565b82525050565b6000610c3f82610f0e565b610c498185610f31565b935083602082028501610c5b85610efe565b8060005b85811015610c975784840389528151610c788582610c11565b9450610c8383610f24565b925060208a01995050600181019050610c5f565b50829750879550505050505092915050565b610cb281610faa565b82525050565b610cc181610faa565b82525050565b6000610cd282610f19565b610cdc8185610f42565b9350610cec818560208601610fef565b610cf58161112a565b840191505092915050565b6000610d0b82610f19565b610d158185610f53565b9350610d25818560208601610fef565b610d2e8161112a565b840191505092915050565b60006080830160008301518482036000860152610d568282610cc7565b9150506020830151610d6b6020860182610ca9565b506040830151610d7e6040860182610ca9565b506060830151610d916060860182610d9c565b508091505092915050565b610da581610fd6565b82525050565b610db481610fd6565b82525050565b6000602082019050610dcf6000830184610c25565b92915050565b60006020820190508181036000830152610def8184610c34565b905092915050565b60006080820190508181036000830152610e118187610d00565b9050610e206020830186610cb8565b610e2d6040830185610cb8565b610e3a6060830184610dab565b95945050505050565b600060a082019050610e586000830188610dab565b8181036020830152610e6a8187610d00565b9050610e796040830186610cb8565b610e866060830185610cb8565b610e936080830184610dab565b9695505050505050565b6000604051905081810181811067ffffffffffffffff82111715610ec457610ec36110fb565b5b8060405250919050565b600067ffffffffffffffff821115610ee957610ee86110fb565b5b601f19601f8301169050602081019050919050565b6000819050602082019050919050565b600081519050919050565b600081519050919050565b6000602082019050919050565b600082825260208201905092915050565b600082825260208201905092915050565b600082825260208201905092915050565b6000610f6f82610fd6565b9150610f7a83610fd6565b925082821015610f8d57610f8c61109d565b5b828203905092915050565b6000610fa382610fb6565b9050919050565b60008115159050919050565b600073ffffffffffffffffffffffffffffffffffffffff82169050919050565b6000819050919050565b82818337600083830152505050565b60005b8381101561100d578082015181840152602081019050610ff2565b8381111561101c576000848401525b50505050565b6000600282049050600182168061103a57607f821691505b6020821081141561104e5761104d6110cc565b5b50919050565b600061105f82610fd6565b91507fffffffffffffffffffffffffffffffffffffffffffffffffffffffffffffffff8214156110925761109161109d565b5b600182019050919050565b7f4e487b7100000000000000000000000000000000000000000000000000000000600052601160045260246000fd5b7f4e487b7100000000000000000000000000000000000000000000000000000000600052602260045260246000fd5b7f4e487b7100000000000000000000000000000000000000000000000000000000600052604160045260246000fd5b6000601f19601f8301169050919050565b61114481610f98565b811461114f57600080fd5b50565b61115b81610faa565b811461116657600080fd5b50565b61117281610fd6565b811461117d57600080fd5b5056fea2646970667358221220f60a1a6aa727acc89c509f334c50eba07565ff99183b53749d3ec76e1b0682ed64736f6c63430008000033",
  "linkReferences": {},
  "deployedLinkReferences": {}
}